:100000000C9434000C943E000C943E000C943E0082
:100010000C943E000C943E000C943E000C943E0068
:100020000C943E000C943E000C943E000C943E0058
:100030000C943E000C943E000C943E000C943E0048
:100040000C943E000C943E000C943E000C943E0038
:100050000C943E000C943E000C943E000C943E0028
:100060000C943E000C943E0011241FBECFEFD8E04C
:10007000DEBFCDBF0E9482000C949F000C94000054
:100080002FEF84E39CE0215080409040E1F700C0D6
:1000900000002FEF84E39CE0215080409040E1F786
:1000A00000C0000008958AB18F708AB98AB18C604F
:1000B0008AB984B18FEF84B9089589B1809582950A
:1000C0008F70089585B90E94400015B80C944000C7
:1000D0001092C50087E68093C40088E18093C10038
:1000E0008EE08093C20008959091C00095FFFCCFF0
:1000F0008093C60008958091C00087FFFCCF809157
:10010000C60008950E9453000E9468002D9A0E9424
:1001100040002D980E945D00C82FCF3051F40E94FE
:100120005D00C82F0E947B008F30B9F30E946200EF
:10013000F4CF8C2F0E9474000E944000EECFF89400
:02014000FFCFEF
:00000001FF
