:100000000C9434000C9446000C9446000C9446006A
:100010000C9446000C9446000C9446000C94460048
:100020000C9446000C9446000C9446000C94460038
:100030000C9446000C9446000C9446000C94460028
:100040000C9446000C9446000C9446000C94460018
:100050000C9446000C9446000C9446000C94460008
:100060000C9446000C94460011241FBECFEFD8E03C
:10007000DEBFCDBF21E0A0E0B1E001C01D92A13004
:10008000B207E1F70E946F000C9487000C94000007
:1000900086B180958F70089585B98FE39CE90197AB
:1000A000F1F700C0000015B8089588E18093C10001
:1000B0008EE08093C20087E68093C4001092C50052
:1000C00008958091C00087FFFCCF8091C6000895FD
:1000D0009091C00095FFFCCF8093C60008958FEFEC
:1000E00084B980EF87B980E895E20E9455000E94AC
:1000F000480080930001992787FD90950E94680031
:100100000E946100809300010E944C00F0CFF8949F
:02011000FFCF1F
:00000001FF
