:100000000C9434000C9446000C9446000C9446006A
:100010000C9446000C9446000C9446000C94460048
:100020000C9446000C9446000C9446000C94460038
:100030000C9446000C9446000C9446000C94460028
:100040000C9446000C9446000C9446000C94460018
:100050000C9446000C9446000C9446000C94460008
:100060000C9446000C94460011241FBECFEFD8E03C
:10007000DEBFCDBF21E0A0E0B1E001C01D92A13004
:10008000B207E1F70E94A7000C94BB000C9400009B
:1000900086B180958F708F3009F480E0089585B91E
:1000A0002FEF80E792E0215080409040E1F700C0C0
:1000B000000015B8089588E18093C1008EE0809318
:1000C000C20087E68093C4001092C5000895809115
:1000D000C00087FFFCCF8091C60008959091C000BA
:1000E00095FFFCCF8093C60008951F920F920FB624
:1000F0000F9211241F932F933F934F935F936F930E
:100100007F938F939F93AF93BF93CF93DF93EF939F
:10011000FF93C6ECD0E01881812F992787FD909539
:100120000E944F001883FF91EF91DF91CF91BF9113
:10013000AF919F918F917F916F915F914F913F917F
:100140002F911F910F900FBE0F901F9018958FEF5A
:1001500084B980EF87B980E895E20E945B000E9435
:100160004800809300018823D1F3992787FD90955B
:0A0170000E946E00F4CFF894FFCF58
:00000001FF
